:020000040800F2
:10000000300400200D070008C5020008C7020008E0
:10001000CB020008CF020008D30200080000000055
:10002000000000000000000000000000D7020008EF
:10003000D902000800000000DB020008DD02000811
:1000400027070008270700082707000827070008D8
:1000500027070008270700082707000827070008C8
:1000600027070008270700082707000827070008B8
:1000700027070008270700082707000827070008A8
:100080002707000827070008270700082707000898
:100090002707000827070008270700082707000888
:1000A0002707000827070008270700082707000878
:1000B0002707000827070008270700082707000868
:1000C0002707000827070008270700082707000858
:1000D0002707000827070008270700082707000848
:1000E0002707000827070008270700082707000838
:1000F0002707000827070008270700082707000828
:100100002707000827070008270700082707000817
:100110002707000827070008270700082707000807
:1001200027070008270700082707000827070008F7
:10013000DFF80CD001F088FB0048004745010008BB
:100140003004002000F0CCF800F018FA00F0B2FA09
:1001500033E03B2000F0C4FA0446214617A001F02A
:1001600085FB3D2000F0BCFA044621461EA001F0AC
:100170007DFB3F2000F0B4FA0446214625A001F0A3
:1001800075FB432000F0ACFA044621462CA001F098
:100190006DFB452000F0A4FA0446214633A001F08F
:1001A00065FB472000F09CFA044621463AA001F086
:1001B0005DFB4FF4FA7000F0A2F9CAE70D0A2D2D8D
:1001C0002D2D2D2D2D2D2DBCD3CBD9B6C858D6E134
:1001D000D4ADCABCCAFDBEDD2D2D2D2D2D2D2D2D4E
:1001E0002D2564200D0A00000D0A2D2D2D2D2D2DFD
:1001F0002D2D2DBCD3CBD9B6C859D6E1D4ADCABCB0
:10020000CAFDBEDD2D2D2D2D2D2D2D2D2D2564204E
:100210000D0A00000D0A2D2D2D2D2D2D2D2D2DBC5F
:10022000D3CBD9B6C85AD6E1D4ADCABCCAFDBEDD5F
:100230002D2D2D2D2D2D2D2D2D2564200D0A000069
:100240000D0A2D2D2D2D2D2D2D2D2DCDD3C2DDD2F1
:10025000C758D6E1D4ADCABCCAFDBEDD2D2D2D2DAB
:100260002D2D2D2D2D2564200D0A00000D0A2D2D7C
:100270002D2D2D2D2D2D2DCDD3C2DDD2C759D6E15B
:10028000D4ADCABCCAFDBEDD2D2D2D2D2D2D2D2D9D
:100290002D2564200D0A00000D0A2D2D2D2D2D2D4C
:1002A0002D2D2DCDD3C2DDD2C75AD6E1D4ADCABCD7
:1002B000CAFDBEDD2D2D2D2D2D2D2D2D2D2564209E
:1002C0000D0A0000704700BFFEE700BFFEE700BF59
:1002D000FEE700BFFEE770477047704770470000B9
:1002E00000B585B0012144F2050000F03FFF4FF456
:1002F0000070ADF8100018208DF8130003208DF861
:10030000120004A9754800F073FA4FF48060ADF84C
:10031000100004208DF8130004A9704800F068FA5A
:100320004FF4E13000900020ADF80400ADF8060075
:10033000ADF80800ADF80C000C20ADF80A006946D5
:10034000674800F0BAFF0121654801F042F805B0A6
:1003500000BD70B504460D46E1B2614801F0A6F853
:1003600000BF5F48008800F080000028F9D02046D8
:1003700070BDF0B503460D461646002729460A2EE5
:1003800003D0002008702846F0BD33B9302001F8B2
:10039000010B002008702846F6E7002B03DA2D2019
:1003A00001F8010B5B4242F210720DE093FBF2F494
:1003B00004B937B104F1300001F8010B04FB12332A
:1003C00001270A2092FBF0F2002AEFDC00200870DF
:1003D0002846D9E70FB470B586B006460CA8019040
:1003E00073E00B9800785C281CD10B98401C0B9094
:1003F00000786E2809D072280FD10D21304601F007
:1004000055F80B98401C0B900BE00A21304601F088
:100410004DF80B98401C0B9003E00B98401C0B9080
:1004200000BF4BE00B980078252840D10B98401C6A
:100430000B900078642818D0732833D1019810C825
:1004400001900BE02178304601F030F800BF4021E8
:10045000304601F099F80028F9D0641C2078002873
:10046000F0D10B98401C0B9020E0019820C801901F
:100470000A2202A92846FFF77CFF02AC0BE0217894
:10048000304601F013F800BF4021304601F07CF8FF
:100490000028F9D0641C20780028F0D10B98401C6B
:1004A0000B9003E00B98401C0B9000BF06E00B98EC
:1004B00010F8011B0B90304600F0F8FF00BF402100
:1004C000304601F061F80028F9D00B980078002838
:1004D00087D106B070BC5DF814FB00000008014035
:1004E00000380140014605E0002001E0421CD0B286
:1004F0000A28FBDB0A1EA1F10101F5D1704710B5F6
:10050000044603E04FF47A70FFF7ECFF201EA4F1DD
:100510000104F7D110BD000008B50121082000F04A
:1005200025FE0121480500F02EFEC020ADF8000098
:1005300003208DF802001C208DF8030069466F48E7
:1005400000F056F908BD1FB50020ADF804004FF4C7
:100550008060ADF80A000001ADF80C004CF250309C
:1005600000906946664800F0AAFA0121644800F04C
:1005700024FB0121624800F05CFB1FBD10B5FFF7B2
:10058000CBFFFFF7E0FF10BD70B504460D4601211B
:100590005B4800F036FB00BF5A49594800F012FC96
:1005A0000028F9D00022D021554800F080FB00BF80
:1005B0005549534800F006FC0028F9D02146504820
:1005C00000F06FFB00BF5049891C4D4800F0FAFB5A
:1005D0000028F8D029464A4800F063FB00BF4A498A
:1005E000891C474800F0EEFB0028F8D00121444860
:1005F00000F013FB70BD70B5044600BF4FF400312E
:100600003F4800F001FC0028F8D101213C4800F0EF
:10061000F8FA00BF3B493A4800F0D4FB0028F9D073
:100620000022D021364800F042FB00BF3649344852
:1006300000F0C8FB0028F9D00121314800F0BDFAD4
:1006400021462F4800F02DFB00BF2F49891C2C4864
:1006500000F0B8FB0028F8D00121294800F0D1FAB9
:1006600000BF2849264800F0ADFB0028F9D0012240
:10067000D021234800F01BFB00BF2249491C204821
:1006800000F0A0FB0028F8D000211D4800F0D1FAAE
:1006900001211B4800F0C1FA00BF1A493F31184838
:1006A00000F090FB0028F8D0154800F0FCFA054651
:1006B000284670BD10B500216B20FFF765FF0721AC
:1006C0001920FFF761FF06211A20FFF75DFF1821AF
:1006D0001B20FFF759FF01211C20FFF755FF10BD1C
:1006E00070B504462046FFF786FF0546611CC8B278
:1006F000FFF781FF064606EB052070BD000C0140A8
:1007000000540040010003008200070006488047B3
:1007100006480047FEE7FEE7FEE7FEE7FEE7FEE7E6
:10072000FEE7FEE7FEE7FEE71B17000831010008C1
:1007300010B50446CC48844208D10121042000F0C1
:100740002FFD0021042000F02BFD46E0C748844225
:1007500008D10121082000F023FD0021082000F02D
:100760001FFD3AE0C248844208D10121102000F068
:1007700017FD0021102000F013FD2EE0BD4884423B
:1007800008D10121202000F00BFD0021202000F0E5
:1007900007FD22E0B848844208D10121402000F042
:1007A000FFFC0021402000F0FBFC16E0B34884422F
:1007B00008D10121802000F0F3FC0021802000F00E
:1007C000EFFC0AE0AE48844207D10121801500F019
:1007D000E7FC0021A01500F0E3FC10BD10B50121DD
:1007E000084600F0DDFC0021012000F0D9FC10BD1E
:1007F0002DE9F041024600250026002000230024B8
:10080000002791F803C00CF00F0591F803C00CF01D
:10081000100CBCF1000F03D091F802C04CEA0505A2
:1008200091F800C0BCF1000F31D0146800202BE01B
:100830004FF0010C0CFA00F3B1F800C00CEA03060B
:100840009E4220D183004FF00F0C0CFA03F7BC43FB
:1008500005FA03FC4CEA040491F803C0BCF1280F2C
:1008600006D14FF0010C0CFA00FCC2F814C00AE0EB
:1008700091F803C0BCF1480F05D14FF0010C0CFA00
:1008800000FCC2F810C0401C0828D1D31460B1F895
:1008900000C0BCF1FF0F34DD546800202EE000F1F1
:1008A000080C4FF0010808FA0CF3B1F800C00CEA8C
:1008B00003069E4221D183004FF00F0C0CFA03F780
:1008C000BC4305FA03FC4CEA040491F803C0BCF1F4
:1008D000280F05D100F1080C08FA0CF8C2F81480B2
:1008E00091F803C0BCF1480F07D100F1080C4FF09C
:1008F000010808FA0CF8C2F81080401C0828CED372
:100900005460BDE8F0814FF6FF71018002218170D3
:100910000421C17070470246002093680B400BB160
:10092000012000E0002070470146886880B27047CF
:1009300002460020D3680B400BB1012000E00020EC
:1009400070470146C86880B27047016170474161D5
:1009500070470AB1016100E041617047C1607047B2
:100960004FF480320A4382618161826182698269C7
:10097000704702460020434B18684FF680731840BA
:1009800040EA021008433F4B186070473E49C86177
:100990007047F0B50A46002300240021002500F02E
:1009A0000046B6F1004F02D1364EF16901E0354EF6
:1009B0007168C0F3034583B200F44016B6F5401FDA
:1009C00008D121F070612F4E766826F070662D4FA9
:1009D0007E6012E000F48016B6F5801F06D1032673
:1009E00006FA05F4A14341F0706106E0460D3601B8
:1009F00003FA06F6B14341F0706122B1460D3601AB
:100A000003FA06F6314300F00046B6F1004F02D17A
:100A10001C4EF16101E01B4E7160F0BD30B500224B
:100A20008B071C0F0F2303FA04F2164B08338C10AC
:100A300053F824309343134C08348D1044F8253078
:100A400023468C1053F824308C07240F00FA04F44A
:100A500023430C4C08348D1044F8253030BD0A492E
:100A6000DC3108607047000000080140000C0140C4
:100A7000001001400014014000180140001C01401A
:100A800000200140000001400000204210B5044653
:100A9000F748844209D10121480500F08EFB00216E
:100AA0004FF4001000F089FB08E00121880500F0F8
:100AB00084FB00214FF4800000F07FFB10BD2DE986
:100AC000F04385B004460D460026B1460427DFF802
:100AD000A483A6884FF6C0700640684600F0D9FA95
:100AE000DDF80880E448B8FBF0F01FFA80F946EA28
:100AF0000906A68020884FF6FE7108402080002657
:100B0000DE49286888420CD828684000B8FBF0F01D
:100B100087B2042F00DA04273E4309F10100208444
:100B200027E0E8884BF6FF71884206D1286800EB81
:100B30004000B8FBF0F087B209E0286800EBC00184
:100B400001EB0010B8FBF0F087B247F48047C7F321
:100B50000B0008B947F0010747F4004006434FF483
:100B6000967009FB00F04FF47A7190FBF1F0401C95
:100B70002084A683208840F00100208026884FF63C
:100B8000F5300640A8886989084306432680A8896D
:100B900029890843208105B0BDE8F08341F28831FE
:100BA0000160002181804BF6FF71C180002101812D
:100BB00041814FF480418181704721B1028842F028
:100BC0000102028004E002884FF6FE731A400280A0
:100BD000704721B1828842F40062828004E08288FA
:100BE0004FF2FF731A408280704721B1828842F42D
:100BF0008052828004E082884EF6FF731A40828021
:100C0000704721B1028842F48072028004E00288B9
:100C10004FF6FF631A400280704721B1028842F408
:100C20000072028004E002884FF6FF531A400280EF
:100C3000704721B1028842F48062028004E0028899
:100C40004FF6FF331A40028070470A46002181891F
:100C50004FF60173194002F0FE031943818170477A
:100C600021B1828942F00102828104E082894FF63B
:100C7000FE731A408281704721B1028842F040021F
:100C8000028004E002884FF6BF731A40028070476A
:100C90001AB183880B43838002E083888B4383806F
:100CA0007047018270470146088AC0B2704712B18E
:100CB00041F0010102E04FF6FE73194001827047D6
:100CC00008B5024600200090009200980844009069
:100CD0000098008808BD21B1028842F400420280D9
:100CE00003E00288C2F30E0202807047B1F5006F84
:100CF00004D1028842F40062028004E002884FF2CC
:100D0000FF731A4002807047B1F5005F04D102887A
:100D100042F40052028004E002884DF6FF731A404C
:100D20000280704721B1028842F48052028004E0C0
:100D300002884EF6FF731A4002807047B1F5006FCB
:100D400004D1028842F40062028004E002884FF27B
:100D5000FF731A400280704721B1028842F02002DE
:100D6000028004E002884FF6DF731A400280704769
:100D70000146088B0012704721B1028842F0100230
:100D8000028004E002884FF6EF731A400280704739
:100D900021B9028842F08002028004E002884FF606
:100DA0007F731A4002807047B1F5804F05D0828B67
:100DB0004BF6FF731A40828303E0828B42F4804239
:100DC0008283704770B5024600240025002300206E
:100DD000958A138B1B0445EA030626F07F4404EA38
:100DE00001068E4201D1012000E0002070BD10B547
:100DF00001460020002300228B8A0A8B120443EA5A
:100E0000020424F07F4010BD0CB5024600200023F0
:100E10000193009300920B0F019321F07F41019BFE
:100E20001BB1009B1433009303E0090C009B1833A3
:100E30000093009B1B680B400BB1012000E00020D9
:100E40000CBD002221F07F42D3438382704730B52E
:100E5000024600200023948801F0E06504EA15436F
:100E600021F07F41948A0C4054B14BB1012008E03D
:100E70000054004000127A0040420F00A08601009A
:100E8000002030BD002221F07F42D343838270478F
:100E9000DF48006840F00100DD490860084640680E
:100EA000DC490840DA49486008460068DA490840E9
:100EB000D74908600846006820F48020086008468A
:100EC000406820F4FE0048604FF41F0088607047BF
:100ED000CF49096821F48031CD4A11601146096873
:100EE00021F480211160B0F5803F03D0B0F5802F50
:100EF0000ED106E0C649096841F48031C44A116048
:100F000007E0C349096841F4A021C14A116000E02B
:100F100000BF00BF704710B501460022002300202B
:100F20004A11012A02D1BA4C236806E0022A02D1F2
:100F3000B74C236A01E0B64C636A01F01F0201243A
:100F400094401C400CB1012000E0002010BD38B5D9
:100F5000002000900024002500BF3120FFF7DBFFB8
:100F600005460098401C00900098B0F5A06F01D095
:100F7000002DF2D03120FFF7CEFF08B1012400E0B0
:100F80000024204638BD01460020A14A106820F008
:100F9000F80040EAC10010607047A049086070473F
:100FA000024600209A4B586820F47C1042EA010364
:100FB0001843974B58607047984908667047014638
:100FC0000020934A506820F00300084350607047A7
:100FD0008F48406800F00C007047014600208C4AA2
:100FE000506820F0F0000843506070470146002030
:100FF000874A506820F4E06008435060704701461B
:101000000020834A506820F4605040EAC1005060DC
:10101000704729B17E4A527A02437D4B5A7204E0EE
:101020007B4A527A82437A4B5A7270477B49D83155
:101030000860704701460020754A506820F440401F
:101040000843506070470021714A20321170704A85
:1010500082F82010012802D004280AD104E00121DE
:101060006B4A2032117005E00521694A2032117067
:1010700000E000BF00BF70476949086070476449DD
:10108000096A0143624A1162704765494439086040
:10109000704730B500210022002400235C4D6D68AC
:1010A00005F00C0121B1042905D0082923D105E060
:1010B0005C4D056022E05B4D05601FE0544D6D689E
:1010C00005F47012524D6D6805F48034022505EB6D
:1010D00092421CB9544D554305600BE04C4D6D6870
:1010E00005F400351DB1504D5543056002E04D4DEE
:1010F0005543056002E04B4D056000BF00BF444D05
:101100006D6805F0F0010909484D6B5C0568DD402C
:1011100045603F4D6D6805F4E061090A434D6B5C25
:101120004568DD4085603A4D6D6805F46051C90A37
:101130003E4D6B5C4568DD40C560354D6D6805F41E
:101140004041890B3A4D6B5CC568B5FBF3F5056111
:1011500030BD29B12E4A526902432D4B5A6104E039
:101160002B4A526982432A4B5A61704729B1284A57
:1011700092690243264B9A6104E0254A92698243B0
:10118000234B9A61704729B1214AD2690243204B0F
:10119000DA6104E01E4AD26982431D4BDA6170476E
:1011A00029B11B4AD2680243194BDA6004E0184A9D
:1011B000D2688243164BDA60704729B1144A12692B
:1011C0000243134B1A6104E0114A12698243104B27
:1011D0001A61704712494039086070470F49C86466
:1011E00070470B49C87170470948406A40F08070E9
:1011F00007494862704701460020054A92680A4044
:101200000AB1012000E00020704701498872704750
:10121000001002400000FFF8FFFFF6FE000042420F
:101220008004424200127A0000093D0000000020C4
:101230001000002010B50446FB48844209D101216A
:101240008803FFF7ADFF00214FF48040FFF7A8FFB0
:1012500032E0F648844209D101214804FFF7ADFF8E
:1012600000214FF40030FFF7A8FF25E0F04884424A
:1012700009D101218804FFF7A0FF00214FF480204D
:10128000FFF79BFF18E0EB48844209D10121C80415
:10129000FFF793FF00214FF40020FFF78EFF0BE0D4
:1012A000E548844208D101210805FFF786FF0021A7
:1012B0004FF48010FFF781FF10BD2DE9F04786B095
:1012C00005460E460024A24600BFA1460027B0896D
:1012D00000B100BF2F462C8A4CF6FF700440F08806
:1012E00004432C82AC894EF6F3100440B088318957
:1012F0000843718908430443AC81AC8A4FF6FF4030
:101300000440B0890443AC8201A8FFF7C2FEC6487E
:10131000874202D1DDF810A001E0DDF80CA0A88919
:1013200000F4004040B10AEBCA0000EB0A1031683B
:101330004900B0FBF1F807E00AEBCA0000EB0A1025
:1013400031688900B0FBF1F86420B8FBF0F00401CB
:101350002009642101FB1089A88900F4004040B1F4
:10136000322000EBC900B0FBF1F000F007000443AD
:1013700008E0322000EB09106421B0FBF1F000F02E
:101380000F0004432C8106B0BDE8F0874FF41651DE
:10139000016000218180C18001810C2141810021F7
:1013A0008181704710B502460020108A4FF2FF037A
:1013B00018400B884C8823438C882343CC882343D4
:1013C0001843108210BD0021018041808180C180BE
:1013D000704721B1828942F40052828104E08289FF
:1013E0004DF6FF731A4082817047F0B50346002422
:1013F00000260025002040F66A17B94200D100BF40
:101400001846C1F3421401F01F06012707FA06F53A
:10141000012C01D10C3004E0022C01D1103000E08D
:1014200014301AB107682F43076002E00768AF4322
:101430000760F0BD1AB1838A0B43838202E0838A7E
:101440008B4383827047028A4FF6F0731A40028200
:10145000028A0A430282704782894FF2FF731A4060
:10146000828182890A438281704721B1828942F058
:101470000202828104E082894FF6FD731A40828164
:101480007047028A4FF6DF731A400282028A0A43CB
:101490000282704721B1028A42F48042028204E053
:1014A000028A4BF6FF731A4002827047C1F30802AA
:1014B0008280704701468888C0F3080070478189A0
:1014C00041F0010181817047028BD2B20283028B0D
:1014D00042EA012202837047028B02F47F420283B8
:1014E000028B0A430283704721B1828A42F02002B4
:1014F000828204E0828A4FF6DF731A40828270474C
:1015000021B1828A42F01002828204E0828A4FF680
:10151000EF731A408282704721B1828A42F008023A
:10152000828204E0828A4FF6F7731A408282704703
:1015300021B1828942F40042828103E08289C2F3B0
:101540000E028281704721B1828A42F40062828257
:1015500004E0828A4FF2FF731A4082827047828AC7
:101560004FF6FB731A408282828A0A438282704756
:1015700021B1828A42F00202828204E0828A4FF61E
:10158000FD731A408282704702460020B1F5007F49
:1015900000D100BF13880B400BB1012000E00020F8
:1015A000704701F40072B2F5007F00D100BFCA435A
:1015B0000280704770B502460024002300250020F9
:1015C00040F66A16B14200D100BFC1F3421501F0E6
:1015D0001F03012606FA03F3012D02D19689334039
:1015E00006E0022D02D1168A334001E0968A33408C
:1015F0000C12012606FA04F41688344013B10CB11B
:10160000012000E0002070BD10B50022002340F64C
:101610006A14A14200D100BF0A1201249440A3B26F
:10162000DC43048010BD000000380140004400404D
:1016300000480040004C0040005000400CB5002025
:10164000019000906C48006840F480306A4908605E
:1016500000BF6948006800F4003000900198401C09
:101660000190009818B90198B0F5A06FF1D16248C7
:10167000006800F4003010B10120009001E000206B
:1016800000900098012843D15C48006840F01000A9
:101690005A4908600846006820F0030008600846C0
:1016A000006840F0020008605348406852494860B2
:1016B0000846406848600846406840F480604860DA
:1016C0000846406820F47C1048600846406840F4B2
:1016D000E81048600846006840F08070086000BF6D
:1016E0004548006800F000700028F9D04248406882
:1016F00020F00300404948600846406840F002007E
:10170000486000BF3C48406800F00C000828F9D150
:101710000CBD10B5FFF792FF10BD10B5364800683C
:1017200040F00100344908600846406834490840E8
:101730003149486008460068324908402E4908602F
:101740000846006820F4802008600846406820F4BD
:10175000FE0048604FF41F008860FFF7DAFF4FF08B
:1017600000602949086010BD10B50021002000224A
:10177000214B5B6803F00C0121B1042906D0082934
:1017800028D107E0214B224C236027E01F4B204C3F
:10179000236023E0184B5B6803F47010164B5B6802
:1017A00003F48032022303EB904022B9194B4343E8
:1017B000174C23600DE0104B5B6803F4003323B13A
:1017C000144B4343124C236003E0104B4343104C33
:1017D000236003E00D4B0E4C236000BF00BF064B9F
:1017E0005B68C3F303130C4CE15C094B1B68CB40F3
:1017F000074C236010BD0000001002400020024092
:101800000000FFF8FFFFF6FE08ED00E000127A008E
:101810001400002000093D001800002030B50B46E0
:10182000014600202022012409E021FA02F59D4210
:1018300005D303FA02F5491B04FA02F52844151EE4
:10184000A2F10102F1DC30BD064C074D06E0E06874
:1018500040F0010394E8070098471034AC42F6D3F7
:10186000FEF76AFC001A0008201A00080FB4054BA6
:1018700010B503A9044A029800F018F810BC5DF8EE
:1018800014FB0000530300082800002002E008C8F1
:10189000121F08C1002AFAD170477047002001E0EA
:1018A00001C1121F002AFBD1704700002DE9FF4F34
:1018B00089B09B460446002506E025280BD05A46F1
:1018C0000B999047641C6D1C20780028F5D10DB051
:1018D0002846BDE8F08F0027B8460122474900E0BE
:1018E000074314F8013F203B02FA03F00842F7D106
:1018F00020782E2819D114F8010F47F004072A2860
:101900000ED06FF02F022078A0F1300109290CD8F9
:1019100008EB880102EB410100EB0108641CF2E7CF
:101920000A98641C50F8048B0A9020780028CED0C6
:10193000642808D0692806D075281ED05A460B990D
:1019400090476D1C58E00A994FF00A0901C90A91A5
:10195000002802DA40422D2102E0390504D52B216E
:101960008DF82010012103E0F90704D02021F7E7CA
:101970008A4608AE0DE00021FAE70A994FF00A09FD
:1019800001C90A91F7E74946FFF748FF303106F8E9
:10199000011D0028F7D1ADEB060000F12009780702
:1019A00001D44FF00108C84502DDA8EB090000E0B2
:1019B00000208046002706E008A85A46C05D0B9923
:1019C00090476D1C7F1C5745F6DB04E030205A46DB
:1019D0000B9990476D1CB8F10001A8F10108F5DCE6
:1019E00005E016F8010B5A460B9990476D1CB9F1AA
:1019F0000001A9F10109F4DC641C65E70928010074
:101A0000201A0008000000202C0000008C1800089C
:101A10004C1A00082C000020040400009C18000848
:101A20000000000001020304010203040607080984
:101A30000204060800A24A040000000000000000A2
:0C1A400001020304060708090000000072
:0400000508000131BD
:00000001FF
